{
  "_format": "hh-sol-artifact-1",
  "contractName": "CLWalletFactory",
  "sourceName": "contracts/samples/CLWalletFactory.sol",
  "abi": [
    {
      "inputs": [
        {
          "internalType": "contract IEntryPoint",
          "name": "_entryPoint",
          "type": "address"
        }
      ],
      "stateMutability": "nonpayable",
      "type": "constructor"
    },
    {
      "inputs": [],
      "name": "accountImplementation",
      "outputs": [
        {
          "internalType": "contract CLWallet",
          "name": "",
          "type": "address"
        }
      ],
      "stateMutability": "view",
      "type": "function"
    },
    {
      "inputs": [
        {
          "internalType": "address",
          "name": "owner",
          "type": "address"
        },
        {
          "internalType": "uint256",
          "name": "salt",
          "type": "uint256"
        }
      ],
      "name": "createAccount",
      "outputs": [
        {
          "internalType": "contract CLWallet",
          "name": "ret",
          "type": "address"
        }
      ],
      "stateMutability": "nonpayable",
      "type": "function"
    },
    {
      "inputs": [
        {
          "internalType": "address",
          "name": "owner",
          "type": "address"
        },
        {
          "internalType": "uint256",
          "name": "salt",
          "type": "uint256"
        }
      ],
      "name": "getAddress",
      "outputs": [
        {
          "internalType": "address",
          "name": "",
          "type": "address"
        }
      ],
      "stateMutability": "view",
      "type": "function"
    }
  ],
  "bytecode": "0x60a060405234801561001057600080fd5b506040516141b83803806141b883398101604081905261002f91610088565b8060405161003c9061007b565b6001600160a01b039091168152602001604051809103906000f080158015610068573d6000803e3d6000fd5b506001600160a01b0316608052506100b8565b61343280610d8683390190565b60006020828403121561009a57600080fd5b81516001600160a01b03811681146100b157600080fd5b9392505050565b608051610ca66100e060003960008181604b0152818161011401526102580152610ca66000f3fe608060405234801561001057600080fd5b50600436106100415760003560e01c806311464fbe146100465780635fbfb9cf146100965780638cb84e18146100a9575b600080fd5b61006d7f000000000000000000000000000000000000000000000000000000000000000081565b60405173ffffffffffffffffffffffffffffffffffffffff909116815260200160405180910390f35b61006d6100a436600461039d565b6100bc565b61006d6100b736600461039d565b6101ee565b6000806100c984846101ee565b905073ffffffffffffffffffffffffffffffffffffffff81163b80156100f1575090506101e8565b60405173ffffffffffffffffffffffffffffffffffffffff8616602482015284907f000000000000000000000000000000000000000000000000000000000000000090604401604080517fffffffffffffffffffffffffffffffffffffffffffffffffffffffffffffffe08184030181529181526020820180517bffffffffffffffffffffffffffffffffffffffffffffffffffffffff167fc4d66de800000000000000000000000000000000000000000000000000000000179052516101b790610390565b6101c2929190610412565b8190604051809103906000f59050801580156101e2573d6000803e3d6000fd5b50925050505b92915050565b60006103578260001b6040518060200161020790610390565b7fffffffffffffffffffffffffffffffffffffffffffffffffffffffffffffffe082820381018352601f90910116604081905273ffffffffffffffffffffffffffffffffffffffff871660248201527f000000000000000000000000000000000000000000000000000000000000000090604401604080517fffffffffffffffffffffffffffffffffffffffffffffffffffffffffffffffe0818403018152918152602080830180517bffffffffffffffffffffffffffffffffffffffffffffffffffffffff167fc4d66de800000000000000000000000000000000000000000000000000000000179052905161030093929101610412565b604080517fffffffffffffffffffffffffffffffffffffffffffffffffffffffffffffffe08184030181529082905261033c9291602001610480565b6040516020818303038152906040528051906020012061035e565b9392505050565b60006103578383306000604051836040820152846020820152828152600b8101905060ff815360559020949350505050565b6107c1806104b083390190565b600080604083850312156103b057600080fd5b823573ffffffffffffffffffffffffffffffffffffffff811681146103d457600080fd5b946020939093013593505050565b60005b838110156103fd5781810151838201526020016103e5565b8381111561040c576000848401525b50505050565b73ffffffffffffffffffffffffffffffffffffffff83168152604060208201526000825180604084015261044d8160608501602087016103e2565b601f017fffffffffffffffffffffffffffffffffffffffffffffffffffffffffffffffe016919091016060019392505050565b600083516104928184602088016103e2565b8351908301906104a68183602088016103e2565b0194935050505056fe60806040526040516107c13803806107c183398101604081905261002291610321565b61002e82826000610035565b505061043e565b61003e8361006b565b60008251118061004b5750805b156100665761006483836100ab60201b6100291760201c565b505b505050565b610074816100d7565b6040516001600160a01b038216907fbc7cd75a20ee27fd9adebab32041f755214dbc6bffa90cc0225b39da2e5c2d3b90600090a250565b60606100d0838360405180606001604052806027815260200161079a602791396101a9565b9392505050565b6100ea8161022260201b6100551760201c565b6101515760405162461bcd60e51b815260206004820152602d60248201527f455243313936373a206e657720696d706c656d656e746174696f6e206973206e60448201526c1bdd08184818dbdb9d1c9858dd609a1b60648201526084015b60405180910390fd5b806101887f360894a13ba1a3210667c828492db98dca3e2076cc3735a920a3ca505d382bbc60001b61023160201b6100711760201c565b80546001600160a01b0319166001600160a01b039290921691909117905550565b6060600080856001600160a01b0316856040516101c691906103ef565b600060405180830381855af49150503d8060008114610201576040519150601f19603f3d011682016040523d82523d6000602084013e610206565b606091505b50909250905061021886838387610234565b9695505050505050565b6001600160a01b03163b151590565b90565b606083156102a357825160000361029c576001600160a01b0385163b61029c5760405162461bcd60e51b815260206004820152601d60248201527f416464726573733a2063616c6c20746f206e6f6e2d636f6e74726163740000006044820152606401610148565b50816102ad565b6102ad83836102b5565b949350505050565b8151156102c55781518083602001fd5b8060405162461bcd60e51b8152600401610148919061040b565b634e487b7160e01b600052604160045260246000fd5b60005b838110156103105781810151838201526020016102f8565b838111156100645750506000910152565b6000806040838503121561033457600080fd5b82516001600160a01b038116811461034b57600080fd5b60208401519092506001600160401b038082111561036857600080fd5b818501915085601f83011261037c57600080fd5b81518181111561038e5761038e6102df565b604051601f8201601f19908116603f011681019083821181831017156103b6576103b66102df565b816040528281528860208487010111156103cf57600080fd5b6103e08360208301602088016102f5565b80955050505050509250929050565b600082516104018184602087016102f5565b9190910192915050565b602081526000825180602084015261042a8160408501602087016102f5565b601f01601f19169190910160400192915050565b61034d8061044d6000396000f3fe60806040523661001357610011610017565b005b6100115b610027610022610074565b6100b9565b565b606061004e83836040518060600160405280602781526020016102f1602791396100dd565b9392505050565b73ffffffffffffffffffffffffffffffffffffffff163b151590565b90565b60006100b47f360894a13ba1a3210667c828492db98dca3e2076cc3735a920a3ca505d382bbc5473ffffffffffffffffffffffffffffffffffffffff1690565b905090565b3660008037600080366000845af43d6000803e8080156100d8573d6000f35b3d6000fd5b60606000808573ffffffffffffffffffffffffffffffffffffffff16856040516101079190610283565b600060405180830381855af49150503d8060008114610142576040519150601f19603f3d011682016040523d82523d6000602084013e610147565b606091505b509150915061015886838387610162565b9695505050505050565b606083156101fd5782516000036101f65773ffffffffffffffffffffffffffffffffffffffff85163b6101f6576040517f08c379a000000000000000000000000000000000000000000000000000000000815260206004820152601d60248201527f416464726573733a2063616c6c20746f206e6f6e2d636f6e747261637400000060448201526064015b60405180910390fd5b5081610207565b610207838361020f565b949350505050565b81511561021f5781518083602001fd5b806040517f08c379a00000000000000000000000000000000000000000000000000000000081526004016101ed919061029f565b60005b8381101561026e578181015183820152602001610256565b8381111561027d576000848401525b50505050565b60008251610295818460208701610253565b9190910192915050565b60208152600082518060208401526102be816040850160208701610253565b601f017fffffffffffffffffffffffffffffffffffffffffffffffffffffffffffffffe016919091016040019291505056fe416464726573733a206c6f772d6c6576656c2064656c65676174652063616c6c206661696c6564a26469706673582212207206d121ffa3833c53409418e4fa745480d0e85b53510553873d6d68cc9bcdb864736f6c634300080f0033416464726573733a206c6f772d6c6576656c2064656c65676174652063616c6c206661696c6564a26469706673582212206dfb9b6061317891ee723743eebb1acedebddcaef2acb7eb4fa4aa098811941764736f6c634300080f003360c060405230608052620151806007553480156200001c57600080fd5b5060405162003432380380620034328339810160408190526200003f916200011e565b6001600160a01b03811660a052620000566200005d565b5062000150565b600054610100900460ff1615620000ca5760405162461bcd60e51b815260206004820152602760248201527f496e697469616c697a61626c653a20636f6e747261637420697320696e697469604482015266616c697a696e6760c81b606482015260840160405180910390fd5b60005460ff908116146200011c576000805460ff191660ff9081179091556040519081527f7f26b83ff96e1f2b6a682f133852f6798a09c465da95921460cefb38474024989060200160405180910390a15b565b6000602082840312156200013157600080fd5b81516001600160a01b03811681146200014957600080fd5b9392505050565b60805160a05161326f620001c3600039600081816104eb01528181610c6801528181610d1601528181611ab001528181611d010152818161201e015281816121e1015261236301526000818161089c0152818161094c01528181610dd201528181610e820152610fcb015261326f6000f3fe6080604052600436106101db5760003560e01c806372229ee011610102578063bc197c8111610095578063d087d28811610064578063d087d288146105e2578063f23a6e61146105f7578063f5297f881461063d578063f560c7341461066d57600080fd5b8063bc197c8114610545578063bd5021af1461058d578063c399ec88146105ad578063c4d66de8146105c257600080fd5b8063a789d020116100d1578063a789d020146104c2578063b0d691fe146104dc578063b61d27f61461050f578063ba31b2dc1461052f57600080fd5b806372229ee01461044457806382e717f7146104595780638da5cb5b1461046f578063a526d83b146104a257600080fd5b80633659cfe61161017a5780634d44560d116101495780634d44560d146103dc5780634f1ef286146103fc57806352d1902d1461040f578063714041561461042457600080fd5b80633659cfe6146103745780633a871cdd1461039457806347e1da2a146103b45780634a58db19146103d457600080fd5b80630c68ba21116101b65780630c68ba21146102585780630ce03f2d146102885780630fc8c4ed146102ac578063150b7a02146102fe57600080fd5b806223de29146101e757806301ffc9a71461020e5780630ba234d61461024357600080fd5b366101e257005b600080fd5b3480156101f357600080fd5b5061020c610202366004612a2d565b5050505050505050565b005b34801561021a57600080fd5b5061022e610229366004612ade565b61068d565b60405190151581526020015b60405180910390f35b34801561024f57600080fd5b5061020c610772565b34801561026457600080fd5b5061022e610273366004612b20565b60026020526000908152604090205460ff1681565b34801561029457600080fd5b5061029e60075481565b60405190815260200161023a565b3480156102b857600080fd5b506004546102d99073ffffffffffffffffffffffffffffffffffffffff1681565b60405173ffffffffffffffffffffffffffffffffffffffff909116815260200161023a565b34801561030a57600080fd5b50610343610319366004612b3d565b7f150b7a020000000000000000000000000000000000000000000000000000000095945050505050565b6040517fffffffff00000000000000000000000000000000000000000000000000000000909116815260200161023a565b34801561038057600080fd5b5061020c61038f366004612b20565b610885565b3480156103a057600080fd5b5061029e6103af366004612bb0565b610a8a565b3480156103c057600080fd5b5061020c6103cf366004612c49565b610ab0565b61020c610c66565b3480156103e857600080fd5b5061020c6103f7366004612ce3565b610d0c565b61020c61040a366004612d3e565b610dbb565b34801561041b57600080fd5b5061029e610fb1565b34801561043057600080fd5b5061020c61043f366004612b20565b61109d565b34801561045057600080fd5b5061020c611327565b34801561046557600080fd5b5061029e60035481565b34801561047b57600080fd5b506000546102d99062010000900473ffffffffffffffffffffffffffffffffffffffff1681565b3480156104ae57600080fd5b5061020c6104bd366004612b20565b61162d565b3480156104ce57600080fd5b5060085461022e9060ff1681565b3480156104e857600080fd5b507f00000000000000000000000000000000000000000000000000000000000000006102d9565b34801561051b57600080fd5b5061020c61052a366004612e20565b611794565b34801561053b57600080fd5b5061029e60065481565b34801561055157600080fd5b50610343610560366004612e7c565b7fbc197c810000000000000000000000000000000000000000000000000000000098975050505050505050565b34801561059957600080fd5b5061020c6105a8366004612b20565b6117e3565b3480156105b957600080fd5b5061029e611a6a565b3480156105ce57600080fd5b5061020c6105dd366004612b20565b611b21565b3480156105ee57600080fd5b5061029e611cb4565b34801561060357600080fd5b50610343610612366004612f1a565b7ff23a6e61000000000000000000000000000000000000000000000000000000009695505050505050565b34801561064957600080fd5b5061022e610658366004612b20565b60056020526000908152604090205460ff1681565b34801561067957600080fd5b506102d9610688366004612f84565b611d30565b60007fffffffff0000000000000000000000000000000000000000000000000000000082167f150b7a0200000000000000000000000000000000000000000000000000000000148061072057507fffffffff0000000000000000000000000000000000000000000000000000000082167f4e2312e000000000000000000000000000000000000000000000000000000000145b8061076c57507fffffffff0000000000000000000000000000000000000000000000000000000082167f01ffc9a700000000000000000000000000000000000000000000000000000000145b92915050565b61077a611d67565b60085460ff166107eb576040517f08c379a000000000000000000000000000000000000000000000000000000000815260206004820152601560248201527f4e6f207265636f7665727920746f2063616e63656c000000000000000000000060448201526064015b60405180910390fd5b600880547fffffffffffffffffffffffffffffffffffffffffffffffffffffffffffffff00169055600480547fffffffffffffffffffffffff0000000000000000000000000000000000000000169055600080546040516201000090910473ffffffffffffffffffffffffffffffffffffffff16917f8154b6c5e1fc90d44b49808ef93f9739148d0821411890f8cd684385e24b9f1e91a2565b73ffffffffffffffffffffffffffffffffffffffff7f000000000000000000000000000000000000000000000000000000000000000016300361094a576040517f08c379a000000000000000000000000000000000000000000000000000000000815260206004820152602c60248201527f46756e6374696f6e206d7573742062652063616c6c6564207468726f7567682060448201527f64656c656761746563616c6c000000000000000000000000000000000000000060648201526084016107e2565b7f000000000000000000000000000000000000000000000000000000000000000073ffffffffffffffffffffffffffffffffffffffff166109bf7f360894a13ba1a3210667c828492db98dca3e2076cc3735a920a3ca505d382bbc5473ffffffffffffffffffffffffffffffffffffffff1690565b73ffffffffffffffffffffffffffffffffffffffff1614610a62576040517f08c379a000000000000000000000000000000000000000000000000000000000815260206004820152602c60248201527f46756e6374696f6e206d7573742062652063616c6c6564207468726f7567682060448201527f6163746976652070726f7879000000000000000000000000000000000000000060648201526084016107e2565b610a6b81611dfa565b60408051600080825260208201909252610a8791839190611e02565b50565b6000610a94612006565b610a9e84846120a5565b9050610aa98261215e565b9392505050565b610ab86121c9565b8481148015610ace5750821580610ace57508281145b610b34576040517f08c379a000000000000000000000000000000000000000000000000000000000815260206004820152601360248201527f77726f6e67206172726179206c656e677468730000000000000000000000000060448201526064016107e2565b6000839003610bea5760005b85811015610be457610bd2878783818110610b5d57610b5d612f9d565b9050602002016020810190610b729190612b20565b6000858585818110610b8657610b86612f9d565b9050602002810190610b989190612fcc565b8080601f01602080910402602001604051908101604052809392919081815260200183838082843760009201919091525061229092505050565b80610bdc81613060565b915050610b40565b50610c5e565b60005b85811015610c5c57610c4a878783818110610c0a57610c0a612f9d565b9050602002016020810190610c1f9190612b20565b868684818110610c3157610c31612f9d565b90506020020135858585818110610b8657610b86612f9d565b80610c5481613060565b915050610bed565b505b505050505050565b7f00000000000000000000000000000000000000000000000000000000000000006040517fb760faf900000000000000000000000000000000000000000000000000000000815230600482015273ffffffffffffffffffffffffffffffffffffffff919091169063b760faf99034906024016000604051808303818588803b158015610cf157600080fd5b505af1158015610d05573d6000803e3d6000fd5b5050505050565b610d14611d67565b7f00000000000000000000000000000000000000000000000000000000000000006040517f205c287800000000000000000000000000000000000000000000000000000000815273ffffffffffffffffffffffffffffffffffffffff848116600483015260248201849052919091169063205c287890604401600060405180830381600087803b158015610da757600080fd5b505af1158015610c5e573d6000803e3d6000fd5b73ffffffffffffffffffffffffffffffffffffffff7f0000000000000000000000000000000000000000000000000000000000000000163003610e80576040517f08c379a000000000000000000000000000000000000000000000000000000000815260206004820152602c60248201527f46756e6374696f6e206d7573742062652063616c6c6564207468726f7567682060448201527f64656c656761746563616c6c000000000000000000000000000000000000000060648201526084016107e2565b7f000000000000000000000000000000000000000000000000000000000000000073ffffffffffffffffffffffffffffffffffffffff16610ef57f360894a13ba1a3210667c828492db98dca3e2076cc3735a920a3ca505d382bbc5473ffffffffffffffffffffffffffffffffffffffff1690565b73ffffffffffffffffffffffffffffffffffffffff1614610f98576040517f08c379a000000000000000000000000000000000000000000000000000000000815260206004820152602c60248201527f46756e6374696f6e206d7573742062652063616c6c6564207468726f7567682060448201527f6163746976652070726f7879000000000000000000000000000000000000000060648201526084016107e2565b610fa182611dfa565b610fad82826001611e02565b5050565b60003073ffffffffffffffffffffffffffffffffffffffff7f00000000000000000000000000000000000000000000000000000000000000001614611078576040517f08c379a000000000000000000000000000000000000000000000000000000000815260206004820152603860248201527f555550535570677261646561626c653a206d757374206e6f742062652063616c60448201527f6c6564207468726f7567682064656c656761746563616c6c000000000000000060648201526084016107e2565b507f360894a13ba1a3210667c828492db98dca3e2076cc3735a920a3ca505d382bbc90565b6110a5611d67565b73ffffffffffffffffffffffffffffffffffffffff811660009081526002602052604090205460ff16611134576040517f08c379a000000000000000000000000000000000000000000000000000000000815260206004820152600e60248201527f4e6f74206120677561726469616e00000000000000000000000000000000000060448201526064016107e2565b60005b6001548110156112b2578173ffffffffffffffffffffffffffffffffffffffff166001828154811061116b5761116b612f9d565b60009182526020909120015473ffffffffffffffffffffffffffffffffffffffff16036112a057600180546111a1908290613098565b815481106111b1576111b1612f9d565b6000918252602090912001546001805473ffffffffffffffffffffffffffffffffffffffff90921691839081106111ea576111ea612f9d565b9060005260206000200160006101000a81548173ffffffffffffffffffffffffffffffffffffffff021916908373ffffffffffffffffffffffffffffffffffffffff1602179055506001805480611243576112436130af565b60008281526020902081017fffffffffffffffffffffffffffffffffffffffffffffffffffffffffffffffff90810180547fffffffffffffffffffffffff00000000000000000000000000000000000000001690550190556112b2565b806112aa81613060565b915050611137565b5073ffffffffffffffffffffffffffffffffffffffff811660008181526002602052604080822080547fffffffffffffffffffffffffffffffffffffffffffffffffffffffffffffff00169055517fb8107d0c6b40be480ce3172ee66ba6d64b71f6b1685a851340036e6e2e3e3c529190a250565b3360009081526002602052604090205460ff166113a0576040517f08c379a000000000000000000000000000000000000000000000000000000000815260206004820152600e60248201527f4e6f74206120677561726469616e00000000000000000000000000000000000060448201526064016107e2565b60085460ff1661140c576040517f08c379a000000000000000000000000000000000000000000000000000000000815260206004820152601660248201527f4e6f207265636f7665727920696e2070726f636573730000000000000000000060448201526064016107e2565b60075460065461141c91906130de565b421015611485576040517f08c379a000000000000000000000000000000000000000000000000000000000815260206004820152601d60248201527f5265636f766572792074696d65206c6f636b206e6f742070617373656400000060448201526064016107e2565b33600090815260056020526040812080547fffffffffffffffffffffffffffffffffffffffffffffffffffffffffffffff00166001179055805b60015481101561153a5760056000600183815481106114e0576114e0612f9d565b600091825260208083209091015473ffffffffffffffffffffffffffffffffffffffff16835282019290925260400190205460ff1615611528578161152481613060565b9250505b8061153281613060565b9150506114bf565b506003548110610a87576004546000805460405173ffffffffffffffffffffffffffffffffffffffff9384169362010000909204909116917fb532073b38c83145e3e5135377a08bf9aab55bc0fd7c1179cd4fb995d2a5159c91a35060048054600080547fffffffffffffffffffff0000000000000000000000000000000000000000ffff1673ffffffffffffffffffffffffffffffffffffffff831662010000021790557fffffffffffffffffffffffff0000000000000000000000000000000000000000169055600880547fffffffffffffffffffffffffffffffffffffffffffffffffffffffffffffff00169055565b611635611d67565b73ffffffffffffffffffffffffffffffffffffffff811660009081526002602052604090205460ff16156116c5576040517f08c379a000000000000000000000000000000000000000000000000000000000815260206004820152601760248201527f477561726469616e20616c72656164792065786973747300000000000000000060448201526064016107e2565b6001805480820182557fb10e2d527612073b26eecdfd717e6a320cf44b4afac2b0732d9fcbe2b7fa0cf60180547fffffffffffffffffffffffff00000000000000000000000000000000000000001673ffffffffffffffffffffffffffffffffffffffff841690811790915560008181526002602052604080822080547fffffffffffffffffffffffffffffffffffffffffffffffffffffffffffffff0016909417909355915190917f038596bb31e2e7d3d9f184d4c98b310103f6d7f5830e5eec32bffe6f1728f96991a250565b61179c6121c9565b6117dd848484848080601f01602080910402602001604051908101604052809392919081815260200183838082843760009201919091525061229092505050565b50505050565b3360009081526002602052604090205460ff1661185c576040517f08c379a000000000000000000000000000000000000000000000000000000000815260206004820152600e60248201527f4e6f74206120677561726469616e00000000000000000000000000000000000060448201526064016107e2565b60085460ff16156118c9576040517f08c379a000000000000000000000000000000000000000000000000000000000815260206004820152601760248201527f5265636f7665727920616c72656164792061637469766500000000000000000060448201526064016107e2565b600480547fffffffffffffffffffffffff00000000000000000000000000000000000000001673ffffffffffffffffffffffffffffffffffffffff831617905542600655600880547fffffffffffffffffffffffffffffffffffffffffffffffffffffffffffffff0016600117905560005b6001548110156119cf576000600560006001848154811061195e5761195e612f9d565b60009182526020808320919091015473ffffffffffffffffffffffffffffffffffffffff168352820192909252604001902080547fffffffffffffffffffffffffffffffffffffffffffffffffffffffffffffff0016911515919091179055806119c781613060565b91505061193b565b5033600090815260056020526040902080547fffffffffffffffffffffffffffffffffffffffffffffffffffffffffffffff0016600190811790915554611a18906002906130f6565b611a239060016130de565b60035560405173ffffffffffffffffffffffffffffffffffffffff8216907fcd4e9df2b0a742bc5628c20baf55859f839c034aa76a32f600d6b085c4de482990600090a250565b6040517f70a0823100000000000000000000000000000000000000000000000000000000815230600482015260009073ffffffffffffffffffffffffffffffffffffffff7f000000000000000000000000000000000000000000000000000000000000000016906370a08231906024015b602060405180830381865afa158015611af8573d6000803e3d6000fd5b505050506040513d601f19601f82011682018060405250810190611b1c9190613131565b905090565b600054610100900460ff1615808015611b415750600054600160ff909116105b80611b5b5750303b158015611b5b575060005460ff166001145b611be7576040517f08c379a000000000000000000000000000000000000000000000000000000000815260206004820152602e60248201527f496e697469616c697a61626c653a20636f6e747261637420697320616c72656160448201527f647920696e697469616c697a656400000000000000000000000000000000000060648201526084016107e2565b600080547fffffffffffffffffffffffffffffffffffffffffffffffffffffffffffffff001660011790558015611c4557600080547fffffffffffffffffffffffffffffffffffffffffffffffffffffffffffff00ff166101001790555b611c4e8261230d565b8015610fad57600080547fffffffffffffffffffffffffffffffffffffffffffffffffffffffffffff00ff169055604051600181527f7f26b83ff96e1f2b6a682f133852f6798a09c465da95921460cefb38474024989060200160405180910390a15050565b6040517f35567e1a0000000000000000000000000000000000000000000000000000000081523060048201526000602482018190529073ffffffffffffffffffffffffffffffffffffffff7f000000000000000000000000000000000000000000000000000000000000000016906335567e1a90604401611adb565b60018181548110611d4057600080fd5b60009182526020909120015473ffffffffffffffffffffffffffffffffffffffff16905081565b60005462010000900473ffffffffffffffffffffffffffffffffffffffff16331480611d9257503330145b611df8576040517f08c379a000000000000000000000000000000000000000000000000000000000815260206004820152600a60248201527f6f6e6c79206f776e65720000000000000000000000000000000000000000000060448201526064016107e2565b565b610a87611d67565b7f4910fdfa16fed3260ed0e7147f7cc6da11a60208b5b9406d12a635614ffd91435460ff1615611e3a57611e35836123ac565b505050565b8273ffffffffffffffffffffffffffffffffffffffff166352d1902d6040518163ffffffff1660e01b8152600401602060405180830381865afa925050508015611ebf575060408051601f3d9081017fffffffffffffffffffffffffffffffffffffffffffffffffffffffffffffffe0168201909252611ebc91810190613131565b60015b611f4b576040517f08c379a000000000000000000000000000000000000000000000000000000000815260206004820152602e60248201527f45524331393637557067726164653a206e657720696d706c656d656e7461746960448201527f6f6e206973206e6f74205555505300000000000000000000000000000000000060648201526084016107e2565b7f360894a13ba1a3210667c828492db98dca3e2076cc3735a920a3ca505d382bbc8114611ffa576040517f08c379a000000000000000000000000000000000000000000000000000000000815260206004820152602960248201527f45524331393637557067726164653a20756e737570706f727465642070726f7860448201527f6961626c6555554944000000000000000000000000000000000000000000000060648201526084016107e2565b50611e358383836124b6565b3373ffffffffffffffffffffffffffffffffffffffff7f00000000000000000000000000000000000000000000000000000000000000001614611df8576040517f08c379a000000000000000000000000000000000000000000000000000000000815260206004820152601c60248201527f6163636f756e743a206e6f742066726f6d20456e747279506f696e740000000060448201526064016107e2565b7f19457468657265756d205369676e6564204d6573736167653a0a3332000000006000908152601c829052603c81206121226120e5610140860186612fcc565b8080601f01602080910402602001604051908101604052809392919081815260200183838082843760009201919091525085939250506124db9050565b60005462010000900473ffffffffffffffffffffffffffffffffffffffff90811691161461215457600191505061076c565b5060009392505050565b8015610a875760405160009033907fffffffffffffffffffffffffffffffffffffffffffffffffffffffffffffffff90849084818181858888f193505050503d8060008114610d05576040519150601f19603f3d011682016040523d82523d6000602084013e610d05565b3373ffffffffffffffffffffffffffffffffffffffff7f000000000000000000000000000000000000000000000000000000000000000016148061222a575060005462010000900473ffffffffffffffffffffffffffffffffffffffff1633145b611df8576040517f08c379a000000000000000000000000000000000000000000000000000000000815260206004820181905260248201527f6163636f756e743a206e6f74204f776e6572206f7220456e747279506f696e7460448201526064016107e2565b6000808473ffffffffffffffffffffffffffffffffffffffff1684846040516122b99190613176565b60006040518083038185875af1925050503d80600081146122f6576040519150601f19603f3d011682016040523d82523d6000602084013e6122fb565b606091505b509150915081610d0557805160208201fd5b600080547fffffffffffffffffffff0000000000000000000000000000000000000000ffff166201000073ffffffffffffffffffffffffffffffffffffffff8481168202929092178084556040519190048216927f0000000000000000000000000000000000000000000000000000000000000000909216917f421205f9e1d5bf9afb6d0317c0c3bfab4ad396e1dc27b67ab4a50285eeb2d6df91a350565b73ffffffffffffffffffffffffffffffffffffffff81163b612450576040517f08c379a000000000000000000000000000000000000000000000000000000000815260206004820152602d60248201527f455243313936373a206e657720696d706c656d656e746174696f6e206973206e60448201527f6f74206120636f6e74726163740000000000000000000000000000000000000060648201526084016107e2565b7f360894a13ba1a3210667c828492db98dca3e2076cc3735a920a3ca505d382bbc80547fffffffffffffffffffffffff00000000000000000000000000000000000000001673ffffffffffffffffffffffffffffffffffffffff92909216919091179055565b6124bf836124ff565b6000825111806124cc5750805b15611e35576117dd838361254c565b60008060006124ea8585612571565b915091506124f7816125b6565b509392505050565b612508816123ac565b60405173ffffffffffffffffffffffffffffffffffffffff8216907fbc7cd75a20ee27fd9adebab32041f755214dbc6bffa90cc0225b39da2e5c2d3b90600090a250565b6060610aa9838360405180606001604052806027815260200161321360279139612769565b60008082516041036125a75760208301516040840151606085015160001a61259b878285856127ee565b945094505050506125af565b506000905060025b9250929050565b60008160048111156125ca576125ca613192565b036125d25750565b60018160048111156125e6576125e6613192565b0361264d576040517f08c379a000000000000000000000000000000000000000000000000000000000815260206004820152601860248201527f45434453413a20696e76616c6964207369676e6174757265000000000000000060448201526064016107e2565b600281600481111561266157612661613192565b036126c8576040517f08c379a000000000000000000000000000000000000000000000000000000000815260206004820152601f60248201527f45434453413a20696e76616c6964207369676e6174757265206c656e6774680060448201526064016107e2565b60038160048111156126dc576126dc613192565b03610a87576040517f08c379a000000000000000000000000000000000000000000000000000000000815260206004820152602260248201527f45434453413a20696e76616c6964207369676e6174757265202773272076616c60448201527f756500000000000000000000000000000000000000000000000000000000000060648201526084016107e2565b60606000808573ffffffffffffffffffffffffffffffffffffffff16856040516127939190613176565b600060405180830381855af49150503d80600081146127ce576040519150601f19603f3d011682016040523d82523d6000602084013e6127d3565b606091505b50915091506127e4868383876128dd565b9695505050505050565b6000807f7fffffffffffffffffffffffffffffff5d576e7357a4501ddfe92f46681b20a083111561282557506000905060036128d4565b6040805160008082526020820180845289905260ff881692820192909252606081018690526080810185905260019060a0016020604051602081039080840390855afa158015612879573d6000803e3d6000fd5b50506040517fffffffffffffffffffffffffffffffffffffffffffffffffffffffffffffffe0015191505073ffffffffffffffffffffffffffffffffffffffff81166128cd576000600192509250506128d4565b9150600090505b94509492505050565b6060831561297357825160000361296c5773ffffffffffffffffffffffffffffffffffffffff85163b61296c576040517f08c379a000000000000000000000000000000000000000000000000000000000815260206004820152601d60248201527f416464726573733a2063616c6c20746f206e6f6e2d636f6e747261637400000060448201526064016107e2565b508161297d565b61297d8383612985565b949350505050565b8151156129955781518083602001fd5b806040517f08c379a00000000000000000000000000000000000000000000000000000000081526004016107e291906131c1565b73ffffffffffffffffffffffffffffffffffffffff81168114610a8757600080fd5b60008083601f8401126129fd57600080fd5b50813567ffffffffffffffff811115612a1557600080fd5b6020830191508360208285010111156125af57600080fd5b60008060008060008060008060c0898b031215612a4957600080fd5b8835612a54816129c9565b97506020890135612a64816129c9565b96506040890135612a74816129c9565b955060608901359450608089013567ffffffffffffffff80821115612a9857600080fd5b612aa48c838d016129eb565b909650945060a08b0135915080821115612abd57600080fd5b50612aca8b828c016129eb565b999c989b5096995094979396929594505050565b600060208284031215612af057600080fd5b81357fffffffff0000000000000000000000000000000000000000000000000000000081168114610aa957600080fd5b600060208284031215612b3257600080fd5b8135610aa9816129c9565b600080600080600060808688031215612b5557600080fd5b8535612b60816129c9565b94506020860135612b70816129c9565b935060408601359250606086013567ffffffffffffffff811115612b9357600080fd5b612b9f888289016129eb565b969995985093965092949392505050565b600080600060608486031215612bc557600080fd5b833567ffffffffffffffff811115612bdc57600080fd5b84016101608187031215612bef57600080fd5b95602085013595506040909401359392505050565b60008083601f840112612c1657600080fd5b50813567ffffffffffffffff811115612c2e57600080fd5b6020830191508360208260051b85010111156125af57600080fd5b60008060008060008060608789031215612c6257600080fd5b863567ffffffffffffffff80821115612c7a57600080fd5b612c868a838b01612c04565b90985096506020890135915080821115612c9f57600080fd5b612cab8a838b01612c04565b90965094506040890135915080821115612cc457600080fd5b50612cd189828a01612c04565b979a9699509497509295939492505050565b60008060408385031215612cf657600080fd5b8235612d01816129c9565b946020939093013593505050565b7f4e487b7100000000000000000000000000000000000000000000000000000000600052604160045260246000fd5b60008060408385031215612d5157600080fd5b8235612d5c816129c9565b9150602083013567ffffffffffffffff80821115612d7957600080fd5b818501915085601f830112612d8d57600080fd5b813581811115612d9f57612d9f612d0f565b604051601f82017fffffffffffffffffffffffffffffffffffffffffffffffffffffffffffffffe0908116603f01168101908382118183101715612de557612de5612d0f565b81604052828152886020848701011115612dfe57600080fd5b8260208601602083013760006020848301015280955050505050509250929050565b60008060008060608587031215612e3657600080fd5b8435612e41816129c9565b935060208501359250604085013567ffffffffffffffff811115612e6457600080fd5b612e70878288016129eb565b95989497509550505050565b60008060008060008060008060a0898b031215612e9857600080fd5b8835612ea3816129c9565b97506020890135612eb3816129c9565b9650604089013567ffffffffffffffff80821115612ed057600080fd5b612edc8c838d01612c04565b909850965060608b0135915080821115612ef557600080fd5b612f018c838d01612c04565b909650945060808b0135915080821115612abd57600080fd5b60008060008060008060a08789031215612f3357600080fd5b8635612f3e816129c9565b95506020870135612f4e816129c9565b94506040870135935060608701359250608087013567ffffffffffffffff811115612f7857600080fd5b612cd189828a016129eb565b600060208284031215612f9657600080fd5b5035919050565b7f4e487b7100000000000000000000000000000000000000000000000000000000600052603260045260246000fd5b60008083357fffffffffffffffffffffffffffffffffffffffffffffffffffffffffffffffe184360301811261300157600080fd5b83018035915067ffffffffffffffff82111561301c57600080fd5b6020019150368190038213156125af57600080fd5b7f4e487b7100000000000000000000000000000000000000000000000000000000600052601160045260246000fd5b60007fffffffffffffffffffffffffffffffffffffffffffffffffffffffffffffffff820361309157613091613031565b5060010190565b6000828210156130aa576130aa613031565b500390565b7f4e487b7100000000000000000000000000000000000000000000000000000000600052603160045260246000fd5b600082198211156130f1576130f1613031565b500190565b60008261312c577f4e487b7100000000000000000000000000000000000000000000000000000000600052601260045260246000fd5b500490565b60006020828403121561314357600080fd5b5051919050565b60005b8381101561316557818101518382015260200161314d565b838111156117dd5750506000910152565b6000825161318881846020870161314a565b9190910192915050565b7f4e487b7100000000000000000000000000000000000000000000000000000000600052602160045260246000fd5b60208152600082518060208401526131e081604085016020870161314a565b601f017fffffffffffffffffffffffffffffffffffffffffffffffffffffffffffffffe016919091016040019291505056fe416464726573733a206c6f772d6c6576656c2064656c65676174652063616c6c206661696c6564a2646970667358221220e24c9bc40bf77457d8da31896edc8f7e5c599852d52b1562a3d4917e882f0c7a64736f6c634300080f0033",
  "linkReferences": {},
  "deployedLinkReferences": {}
}