{
  "_format": "hh-sol-artifact-1",
  "contractName": "EntryPoint",
  "sourceName": "contracts/core/EntryPoint.sol",
  "abi": [
    {
      "inputs": [
        {
          "internalType": "uint256",
          "name": "opIndex",
          "type": "uint256"
        },
        {
          "internalType": "string",
          "name": "reason",
          "type": "string"
        }
      ],
      "name": "FailedOp",
      "type": "error"
    },
    {
      "inputs": [
        {
          "internalType": "address",
          "name": "sender",
          "type": "address"
        }
      ],
      "name": "SenderAddressResult",
      "type": "error"
    },
    {
      "inputs": [
        {
          "internalType": "address",
          "name": "aggregator",
          "type": "address"
        }
      ],
      "name": "SignatureValidationFailed",
      "type": "error"
    },
    {
      "anonymous": false,
      "inputs": [
        {
          "indexed": true,
          "internalType": "bytes32",
          "name": "userOpHash",
          "type": "bytes32"
        },
        {
          "indexed": true,
          "internalType": "address",
          "name": "sender",
          "type": "address"
        },
        {
          "indexed": false,
          "internalType": "address",
          "name": "factory",
          "type": "address"
        },
        {
          "indexed": false,
          "internalType": "address",
          "name": "paymaster",
          "type": "address"
        }
      ],
      "name": "AccountDeployed",
      "type": "event"
    },
    {
      "anonymous": false,
      "inputs": [],
      "name": "BeforeExecution",
      "type": "event"
    },
    {
      "anonymous": false,
      "inputs": [
        {
          "indexed": true,
          "internalType": "address",
          "name": "account",
          "type": "address"
        },
        {
          "indexed": false,
          "internalType": "uint256",
          "name": "totalDeposit",
          "type": "uint256"
        }
      ],
      "name": "Deposited",
      "type": "event"
    },
    {
      "anonymous": false,
      "inputs": [
        {
          "indexed": true,
          "internalType": "address",
          "name": "aggregator",
          "type": "address"
        }
      ],
      "name": "SignatureAggregatorChanged",
      "type": "event"
    },
    {
      "anonymous": false,
      "inputs": [
        {
          "indexed": true,
          "internalType": "address",
          "name": "account",
          "type": "address"
        },
        {
          "indexed": false,
          "internalType": "uint256",
          "name": "totalStaked",
          "type": "uint256"
        },
        {
          "indexed": false,
          "internalType": "uint256",
          "name": "unstakeDelaySec",
          "type": "uint256"
        }
      ],
      "name": "StakeLocked",
      "type": "event"
    },
    {
      "anonymous": false,
      "inputs": [
        {
          "indexed": true,
          "internalType": "address",
          "name": "account",
          "type": "address"
        },
        {
          "indexed": false,
          "internalType": "uint256",
          "name": "withdrawTime",
          "type": "uint256"
        }
      ],
      "name": "StakeUnlocked",
      "type": "event"
    },
    {
      "anonymous": false,
      "inputs": [
        {
          "indexed": true,
          "internalType": "address",
          "name": "account",
          "type": "address"
        },
        {
          "indexed": false,
          "internalType": "address",
          "name": "withdrawAddress",
          "type": "address"
        },
        {
          "indexed": false,
          "internalType": "uint256",
          "name": "amount",
          "type": "uint256"
        }
      ],
      "name": "StakeWithdrawn",
      "type": "event"
    },
    {
      "anonymous": false,
      "inputs": [
        {
          "indexed": true,
          "internalType": "bytes32",
          "name": "userOpHash",
          "type": "bytes32"
        },
        {
          "indexed": true,
          "internalType": "address",
          "name": "sender",
          "type": "address"
        },
        {
          "indexed": true,
          "internalType": "address",
          "name": "paymaster",
          "type": "address"
        },
        {
          "indexed": false,
          "internalType": "uint256",
          "name": "nonce",
          "type": "uint256"
        },
        {
          "indexed": false,
          "internalType": "bool",
          "name": "success",
          "type": "bool"
        },
        {
          "indexed": false,
          "internalType": "uint256",
          "name": "actualGasCost",
          "type": "uint256"
        },
        {
          "indexed": false,
          "internalType": "uint256",
          "name": "actualGasUsed",
          "type": "uint256"
        }
      ],
      "name": "UserOperationEvent",
      "type": "event"
    },
    {
      "anonymous": false,
      "inputs": [
        {
          "indexed": true,
          "internalType": "bytes32",
          "name": "userOpHash",
          "type": "bytes32"
        },
        {
          "indexed": true,
          "internalType": "address",
          "name": "sender",
          "type": "address"
        },
        {
          "indexed": false,
          "internalType": "uint256",
          "name": "nonce",
          "type": "uint256"
        },
        {
          "indexed": false,
          "internalType": "bytes",
          "name": "revertReason",
          "type": "bytes"
        }
      ],
      "name": "UserOperationRevertReason",
      "type": "event"
    },
    {
      "anonymous": false,
      "inputs": [
        {
          "indexed": true,
          "internalType": "address",
          "name": "account",
          "type": "address"
        },
        {
          "indexed": false,
          "internalType": "address",
          "name": "withdrawAddress",
          "type": "address"
        },
        {
          "indexed": false,
          "internalType": "uint256",
          "name": "amount",
          "type": "uint256"
        }
      ],
      "name": "Withdrawn",
      "type": "event"
    },
    {
      "inputs": [],
      "name": "SIG_VALIDATION_FAILED",
      "outputs": [
        {
          "internalType": "uint256",
          "name": "",
          "type": "uint256"
        }
      ],
      "stateMutability": "view",
      "type": "function"
    },
    {
      "inputs": [
        {
          "internalType": "uint32",
          "name": "unstakeDelaySec",
          "type": "uint32"
        }
      ],
      "name": "addStake",
      "outputs": [],
      "stateMutability": "payable",
      "type": "function"
    },
    {
      "inputs": [
        {
          "internalType": "address",
          "name": "account",
          "type": "address"
        }
      ],
      "name": "balanceOf",
      "outputs": [
        {
          "internalType": "uint256",
          "name": "",
          "type": "uint256"
        }
      ],
      "stateMutability": "view",
      "type": "function"
    },
    {
      "inputs": [
        {
          "internalType": "address",
          "name": "account",
          "type": "address"
        }
      ],
      "name": "depositTo",
      "outputs": [],
      "stateMutability": "payable",
      "type": "function"
    },
    {
      "inputs": [
        {
          "internalType": "address",
          "name": "",
          "type": "address"
        }
      ],
      "name": "deposits",
      "outputs": [
        {
          "internalType": "uint112",
          "name": "deposit",
          "type": "uint112"
        },
        {
          "internalType": "bool",
          "name": "staked",
          "type": "bool"
        },
        {
          "internalType": "uint112",
          "name": "stake",
          "type": "uint112"
        },
        {
          "internalType": "uint32",
          "name": "unstakeDelaySec",
          "type": "uint32"
        },
        {
          "internalType": "uint48",
          "name": "withdrawTime",
          "type": "uint48"
        }
      ],
      "stateMutability": "view",
      "type": "function"
    },
    {
      "inputs": [
        {
          "internalType": "address",
          "name": "account",
          "type": "address"
        }
      ],
      "name": "getDepositInfo",
      "outputs": [
        {
          "components": [
            {
              "internalType": "uint112",
              "name": "deposit",
              "type": "uint112"
            },
            {
              "internalType": "bool",
              "name": "staked",
              "type": "bool"
            },
            {
              "internalType": "uint112",
              "name": "stake",
              "type": "uint112"
            },
            {
              "internalType": "uint32",
              "name": "unstakeDelaySec",
              "type": "uint32"
            },
            {
              "internalType": "uint48",
              "name": "withdrawTime",
              "type": "uint48"
            }
          ],
          "internalType": "struct IStakeManager.DepositInfo",
          "name": "info",
          "type": "tuple"
        }
      ],
      "stateMutability": "view",
      "type": "function"
    },
    {
      "inputs": [
        {
          "internalType": "address",
          "name": "sender",
          "type": "address"
        },
        {
          "internalType": "uint192",
          "name": "key",
          "type": "uint192"
        }
      ],
      "name": "getNonce",
      "outputs": [
        {
          "internalType": "uint256",
          "name": "nonce",
          "type": "uint256"
        }
      ],
      "stateMutability": "view",
      "type": "function"
    },
    {
      "inputs": [
        {
          "internalType": "bytes",
          "name": "initCode",
          "type": "bytes"
        }
      ],
      "name": "getSenderAddress",
      "outputs": [],
      "stateMutability": "nonpayable",
      "type": "function"
    },
    {
      "inputs": [
        {
          "components": [
            {
              "internalType": "address",
              "name": "sender",
              "type": "address"
            },
            {
              "internalType": "uint256",
              "name": "nonce",
              "type": "uint256"
            },
            {
              "internalType": "bytes",
              "name": "initCode",
              "type": "bytes"
            },
            {
              "internalType": "bytes",
              "name": "callData",
              "type": "bytes"
            },
            {
              "internalType": "uint256",
              "name": "callGasLimit",
              "type": "uint256"
            },
            {
              "internalType": "uint256",
              "name": "verificationGasLimit",
              "type": "uint256"
            },
            {
              "internalType": "uint256",
              "name": "preVerificationGas",
              "type": "uint256"
            },
            {
              "internalType": "uint256",
              "name": "maxFeePerGas",
              "type": "uint256"
            },
            {
              "internalType": "uint256",
              "name": "maxPriorityFeePerGas",
              "type": "uint256"
            },
            {
              "internalType": "bytes",
              "name": "paymasterAndData",
              "type": "bytes"
            },
            {
              "internalType": "bytes",
              "name": "signature",
              "type": "bytes"
            }
          ],
          "internalType": "struct UserOperation",
          "name": "userOp",
          "type": "tuple"
        }
      ],
      "name": "getUserOpHash",
      "outputs": [
        {
          "internalType": "bytes32",
          "name": "",
          "type": "bytes32"
        }
      ],
      "stateMutability": "view",
      "type": "function"
    },
    {
      "inputs": [
        {
          "components": [
            {
              "components": [
                {
                  "internalType": "address",
                  "name": "sender",
                  "type": "address"
                },
                {
                  "internalType": "uint256",
                  "name": "nonce",
                  "type": "uint256"
                },
                {
                  "internalType": "bytes",
                  "name": "initCode",
                  "type": "bytes"
                },
                {
                  "internalType": "bytes",
                  "name": "callData",
                  "type": "bytes"
                },
                {
                  "internalType": "uint256",
                  "name": "callGasLimit",
                  "type": "uint256"
                },
                {
                  "internalType": "uint256",
                  "name": "verificationGasLimit",
                  "type": "uint256"
                },
                {
                  "internalType": "uint256",
                  "name": "preVerificationGas",
                  "type": "uint256"
                },
                {
                  "internalType": "uint256",
                  "name": "maxFeePerGas",
                  "type": "uint256"
                },
                {
                  "internalType": "uint256",
                  "name": "maxPriorityFeePerGas",
                  "type": "uint256"
                },
                {
                  "internalType": "bytes",
                  "name": "paymasterAndData",
                  "type": "bytes"
                },
                {
                  "internalType": "bytes",
                  "name": "signature",
                  "type": "bytes"
                }
              ],
              "internalType": "struct UserOperation[]",
              "name": "userOps",
              "type": "tuple[]"
            },
            {
              "internalType": "contract IAggregator",
              "name": "aggregator",
              "type": "address"
            },
            {
              "internalType": "bytes",
              "name": "signature",
              "type": "bytes"
            }
          ],
          "internalType": "struct IEntryPoint.UserOpsPerAggregator[]",
          "name": "opsPerAggregator",
          "type": "tuple[]"
        },
        {
          "internalType": "address payable",
          "name": "beneficiary",
          "type": "address"
        }
      ],
      "name": "handleAggregatedOps",
      "outputs": [],
      "stateMutability": "nonpayable",
      "type": "function"
    },
    {
      "inputs": [
        {
          "components": [
            {
              "internalType": "address",
              "name": "sender",
              "type": "address"
            },
            {
              "internalType": "uint256",
              "name": "nonce",
              "type": "uint256"
            },
            {
              "internalType": "bytes",
              "name": "initCode",
              "type": "bytes"
            },
            {
              "internalType": "bytes",
              "name": "callData",
              "type": "bytes"
            },
            {
              "internalType": "uint256",
              "name": "callGasLimit",
              "type": "uint256"
            },
            {
              "internalType": "uint256",
              "name": "verificationGasLimit",
              "type": "uint256"
            },
            {
              "internalType": "uint256",
              "name": "preVerificationGas",
              "type": "uint256"
            },
            {
              "internalType": "uint256",
              "name": "maxFeePerGas",
              "type": "uint256"
            },
            {
              "internalType": "uint256",
              "name": "maxPriorityFeePerGas",
              "type": "uint256"
            },
            {
              "internalType": "bytes",
              "name": "paymasterAndData",
              "type": "bytes"
            },
            {
              "internalType": "bytes",
              "name": "signature",
              "type": "bytes"
            }
          ],
          "internalType": "struct UserOperation[]",
          "name": "ops",
          "type": "tuple[]"
        },
        {
          "internalType": "address payable",
          "name": "beneficiary",
          "type": "address"
        }
      ],
      "name": "handleOps",
      "outputs": [],
      "stateMutability": "nonpayable",
      "type": "function"
    },
    {
      "inputs": [
        {
          "internalType": "uint192",
          "name": "key",
          "type": "uint192"
        }
      ],
      "name": "incrementNonce",
      "outputs": [],
      "stateMutability": "nonpayable",
      "type": "function"
    },
    {
      "inputs": [
        {
          "internalType": "bytes",
          "name": "callData",
          "type": "bytes"
        },
        {
          "components": [
            {
              "components": [
                {
                  "internalType": "address",
                  "name": "sender",
                  "type": "address"
                },
                {
                  "internalType": "uint256",
                  "name": "nonce",
                  "type": "uint256"
                },
                {
                  "internalType": "uint256",
                  "name": "callGasLimit",
                  "type": "uint256"
                },
                {
                  "internalType": "uint256",
                  "name": "verificationGasLimit",
                  "type": "uint256"
                },
                {
                  "internalType": "uint256",
                  "name": "preVerificationGas",
                  "type": "uint256"
                },
                {
                  "internalType": "address",
                  "name": "paymaster",
                  "type": "address"
                },
                {
                  "internalType": "uint256",
                  "name": "maxFeePerGas",
                  "type": "uint256"
                },
                {
                  "internalType": "uint256",
                  "name": "maxPriorityFeePerGas",
                  "type": "uint256"
                }
              ],
              "internalType": "struct EntryPoint.MemoryUserOp",
              "name": "mUserOp",
              "type": "tuple"
            },
            {
              "internalType": "bytes32",
              "name": "userOpHash",
              "type": "bytes32"
            },
            {
              "internalType": "uint256",
              "name": "prefund",
              "type": "uint256"
            },
            {
              "internalType": "uint256",
              "name": "contextOffset",
              "type": "uint256"
            },
            {
              "internalType": "uint256",
              "name": "preOpGas",
              "type": "uint256"
            }
          ],
          "internalType": "struct EntryPoint.UserOpInfo",
          "name": "opInfo",
          "type": "tuple"
        },
        {
          "internalType": "bytes",
          "name": "context",
          "type": "bytes"
        }
      ],
      "name": "innerHandleOp",
      "outputs": [
        {
          "internalType": "uint256",
          "name": "actualGasCost",
          "type": "uint256"
        }
      ],
      "stateMutability": "nonpayable",
      "type": "function"
    },
    {
      "inputs": [
        {
          "internalType": "address",
          "name": "",
          "type": "address"
        },
        {
          "internalType": "uint192",
          "name": "",
          "type": "uint192"
        }
      ],
      "name": "nonceSequenceNumber",
      "outputs": [
        {
          "internalType": "uint256",
          "name": "",
          "type": "uint256"
        }
      ],
      "stateMutability": "view",
      "type": "function"
    },
    {
      "inputs": [
        {
          "internalType": "bytes4",
          "name": "interfaceId",
          "type": "bytes4"
        }
      ],
      "name": "supportsInterface",
      "outputs": [
        {
          "internalType": "bool",
          "name": "",
          "type": "bool"
        }
      ],
      "stateMutability": "view",
      "type": "function"
    },
    {
      "inputs": [],
      "name": "unlockStake",
      "outputs": [],
      "stateMutability": "nonpayable",
      "type": "function"
    },
    {
      "inputs": [
        {
          "internalType": "address payable",
          "name": "withdrawAddress",
          "type": "address"
        }
      ],
      "name": "withdrawStake",
      "outputs": [],
      "stateMutability": "nonpayable",
      "type": "function"
    },
    {
      "inputs": [
        {
          "internalType": "address payable",
          "name": "withdrawAddress",
          "type": "address"
        },
        {
          "internalType": "uint256",
          "name": "withdrawAmount",
          "type": "uint256"
        }
      ],
      "name": "withdrawTo",
      "outputs": [],
      "stateMutability": "nonpayable",
      "type": "function"
    },
    {
      "stateMutability": "payable",
      "type": "receive"
    }
  ],
  "bytecode": "0x608080604052346200008f57600160025561022c8181016001600160401b038111838210176200007957829162004518833903906000f080156200006d57600380546001600160a01b0319166001600160a01b03929092169190911790556040516144839081620000958239f35b6040513d6000823e3d90fd5b634e487b7160e01b600052604160045260246000fd5b600080fdfe60806040526004361015610023575b361561001957600080fd5b610021613d2b565b005b60003560e01c806301ffc9a71461018b5780630396cb60146101825780630bd28e3b146101795780631b2e01b8146101705780631d732756146101675780631fad948c1461015e578063205c28781461015557806335567e1a1461014c5780634b1d7cf5146101435780635287ce121461013a57806370a08231146101315780638f41ec5a146101285780639b249f691461011f578063a619353114610116578063b760faf91461010d578063bb9fe6bf14610104578063c23a5cea146100fb5763fc7e286d0361000e576100f6611741565b61000e565b506100f66115a8565b506100f661142a565b506100f66113eb565b506100f6611384565b506100f6611258565b506100f661121d565b506100f6611198565b506100f6611048565b506100f6610cec565b506100f6610c27565b506100f6610a88565b506100f66109ae565b506100f66107df565b506100f661059f565b506100f66104bd565b506100f66102f0565b50346102eb5760207ffffffffffffffffffffffffffffffffffffffffffffffffffffffffffffffffc3601126102eb576004357fffffffff0000000000000000000000000000000000000000000000000000000081168091036102eb57807f98215d970000000000000000000000000000000000000000000000000000000061023f92149081156102c1575b8115610297575b811561026d575b8115610243575b5060405190151581529081906020820190565b0390f35b7f01ffc9a7000000000000000000000000000000000000000000000000000000009150143861022c565b7f3e84f0210000000000000000000000000000000000000000000000000000000081149150610225565b7fcf28ef97000000000000000000000000000000000000000000000000000000008114915061021e565b7f698d42210000000000000000000000000000000000000000000000000000000081149150610217565b600080fd5b5060207ffffffffffffffffffffffffffffffffffffffffffffffffffffffffffffffffc3601126102eb5760043563ffffffff81168082036102eb576104917fa5ae833d0bb1dcd632d98a8b70973e8516812898e19bf27b70071ebc8dc52c01916103ae61037e3373ffffffffffffffffffffffffffffffffffffffff166000526000602052604060002090565b9161038a811515613e91565b6103a761039e600185015463ffffffff1690565b63ffffffff1690565b1115613ef6565b54926104736dffffffffffffffffffffffffffff946104316103d534888460781c16611d1c565b966103e1881515613f5b565b6103ed81891115613fc0565b610411816103f9610724565b941684906dffffffffffffffffffffffffffff169052565b6001602084015287166dffffffffffffffffffffffffffff166040830152565b63ffffffff831660608201526000608082015261046e3373ffffffffffffffffffffffffffffffffffffffff166000526000602052604060002090565b614025565b6040805194855263ffffffff90911660208501523393918291820190565b0390a2005b6024359077ffffffffffffffffffffffffffffffffffffffffffffffff821682036102eb57565b50346102eb5760207ffffffffffffffffffffffffffffffffffffffffffffffffffffffffffffffffc3601126102eb5760043577ffffffffffffffffffffffffffffffffffffffffffffffff811681036102eb5761054c9033600052600160205260406000209077ffffffffffffffffffffffffffffffffffffffffffffffff16600052602052604060002090565b6105568154611e9e565b9055005b73ffffffffffffffffffffffffffffffffffffffff8116036102eb57565b602435906105858261055a565b565b60c435906105858261055a565b35906105858261055a565b50346102eb5760407ffffffffffffffffffffffffffffffffffffffffffffffffffffffffffffffffc3601126102eb5760206106346004356105e08161055a565b73ffffffffffffffffffffffffffffffffffffffff6105fd610496565b91166000526001835260406000209077ffffffffffffffffffffffffffffffffffffffffffffffff16600052602052604060002090565b54604051908152f35b507f4e487b7100000000000000000000000000000000000000000000000000000000600052604160045260246000fd5b60a0810190811067ffffffffffffffff82111761068957604052565b61069161063d565b604052565b610100810190811067ffffffffffffffff82111761068957604052565b67ffffffffffffffff811161068957604052565b6060810190811067ffffffffffffffff82111761068957604052565b90601f7fffffffffffffffffffffffffffffffffffffffffffffffffffffffffffffffe0910116810190811067ffffffffffffffff82111761068957604052565b604051906105858261066d565b7fffffffffffffffffffffffffffffffffffffffffffffffffffffffffffffffe0601f60209267ffffffffffffffff811161076d575b01160190565b61077561063d565b610767565b92919261078682610731565b9161079460405193846106e3565b8294818452818301116102eb578281602093846000960137010152565b9181601f840112156102eb5782359167ffffffffffffffff83116102eb57602083818601950101116102eb57565b50346102eb576101c07ffffffffffffffffffffffffffffffffffffffffffffffffffffffffffffffffc3601126102eb5767ffffffffffffffff6004358181116102eb57366023820112156102eb5761084290369060248160040135910161077a565b907fffffffffffffffffffffffffffffffffffffffffffffffffffffffffffffffdc360161018081126102eb576101006040519161087f8361066d565b126102eb5760405161089081610696565b610898610578565b815260443560208201526064356040820152608435606082015260a43560808201526108c2610587565b60a082015260e43560c08201526101043560e082015281526101243560208201526101443560408201526101643560608201526101843560808201526101a4359182116102eb5761023f9261091e6109269336906004016107b1565b92909161225c565b6040519081529081906020820190565b9060407ffffffffffffffffffffffffffffffffffffffffffffffffffffffffffffffffc8301126102eb5760043567ffffffffffffffff928382116102eb57806023830112156102eb5781600401359384116102eb5760248460051b830101116102eb5760240191906024356109ab8161055a565b90565b50346102eb576109bd36610936565b6109c8929192611981565b6109d18361181e565b60005b848110610a5157506000927fbb47ee3e183a558b1a2ff0874b079f3fc5478b7454eacf2bfc5af2ff5878f9728480a183915b858310610a2157610a178585611a1e565b6100216001600255565b909193600190610a47610a35878987611933565b610a3f8886611911565b519088611d29565b0194019190610a06565b80610a7f610a78610a66600194869896611911565b51610a72848a88611933565b846128c9565b9083612521565b019290926109d4565b50346102eb5760407ffffffffffffffffffffffffffffffffffffffffffffffffffffffffffffffffc3601126102eb57600435610ac48161055a565b6024359060009133835282602052604083206dffffffffffffffffffffffffffff81541692838311610bc957848373ffffffffffffffffffffffffffffffffffffffff829593610b6c8496610b33610b208798610bc69c611d07565b6dffffffffffffffffffffffffffff1690565b6dffffffffffffffffffffffffffff167fffffffffffffffffffffffffffffffffffff0000000000000000000000000000825416179055565b6040805173ffffffffffffffffffffffffffffffffffffffff831681526020810185905233917fd1c19fbcd4551a5edfb66d43d2e337c04837afda3482b42bdf569a8fccdae5fb91a2165af1610bc06119ee565b5061439c565b80f35b60646040517f08c379a000000000000000000000000000000000000000000000000000000000815260206004820152601960248201527f576974686472617720616d6f756e7420746f6f206c61726765000000000000006044820152fd5b50346102eb5760407ffffffffffffffffffffffffffffffffffffffffffffffffffffffffffffffffc3601126102eb576020600435610c658161055a565b73ffffffffffffffffffffffffffffffffffffffff610c82610496565b911660005260018252610cbd8160406000209077ffffffffffffffffffffffffffffffffffffffffffffffff16600052602052604060002090565b547fffffffffffffffffffffffffffffffffffffffffffffffff00000000000000006040519260401b16178152f35b50346102eb57610cfb36610936565b610d03611981565b6000805b838210610eea57610d18915061181e565b7fbb47ee3e183a558b1a2ff0874b079f3fc5478b7454eacf2bfc5af2ff5878f972600080a16000805b848110610e5057505060008093815b818110610d8757610a17868660007f575ff3acadd5ab348fe1855e217e0f3678f8d767d7494c9f9fefbee2e17cca4d8180a2611a1e565b610deb610d9582848a611ed8565b610dc0610da7610da760208401611f7a565b73ffffffffffffffffffffffffffffffffffffffff1690565b7f575ff3acadd5ab348fe1855e217e0f3678f8d767d7494c9f9fefbee2e17cca4d600080a280611f26565b906000915b808310610e0857505050610e0390611e9e565b610d50565b90919497610e43610e3d610e4992610e378c8b610e3082610e2a8e8b8d611933565b92611911565b5191611d29565b90611d1c565b99611e9e565b95611e9e565b9190610df0565b610e5b818688611ed8565b6020610e73610e6a8380611f26565b92909301611f7a565b9173ffffffffffffffffffffffffffffffffffffffff60009316905b828410610ea85750505050610ea390611e9e565b610d41565b90919294610e4381610edd85610ed6610ec4610ee2968d611911565b51610ed08c8b8a611933565b856128c9565b908b612739565b611e9e565b929190610e8f565b610ef5828587611ed8565b90610f008280611f26565b92610f10610da760208301611f7a565b9173ffffffffffffffffffffffffffffffffffffffff8316610f356001821415611f84565b610f56575b505050610f5091610f4a91611d1c565b91611e9e565b90610d07565b909592610f6f6040999693999895989788810190611b0f565b92908a3b156102eb5789938b918a5193849283927fe3563a4f00000000000000000000000000000000000000000000000000000000845260049e8f850193610fb69461211e565b03815a93600094fa908161102f575b506110195786517f86a9f75000000000000000000000000000000000000000000000000000000000815273ffffffffffffffffffffffffffffffffffffffff8a16818a0190815281906020010390fd5b0390fd5b9497509295509093509181610f4a610f50610f3a565b8061103c611042926106b3565b80611212565b38610fc5565b50346102eb5760207ffffffffffffffffffffffffffffffffffffffffffffffffffffffffffffffffc3601126102eb5761023f73ffffffffffffffffffffffffffffffffffffffff60043561109c8161055a565b6080604092839283516110ae8161066d565b60009381858093528260208201528287820152826060820152015216815280602052209061113d65ffffffffffff60018351946110ea8661066d565b80546dffffffffffffffffffffffffffff8082168852607082901c60ff161515602089015260789190911c1685870152015463ffffffff8116606086015260201c16608084019065ffffffffffff169052565b5191829182919091608065ffffffffffff8160a08401956dffffffffffffffffffffffffffff808251168652602082015115156020870152604082015116604086015263ffffffff6060820151166060860152015116910152565b50346102eb5760207ffffffffffffffffffffffffffffffffffffffffffffffffffffffffffffffffc3601126102eb5773ffffffffffffffffffffffffffffffffffffffff6004356111e98161055a565b16600052600060205260206dffffffffffffffffffffffffffff60406000205416604051908152f35b60009103126102eb57565b50346102eb5760007ffffffffffffffffffffffffffffffffffffffffffffffffffffffffffffffffc3601126102eb57602060405160018152f35b50346102eb5760207ffffffffffffffffffffffffffffffffffffffffffffffffffffffffffffffffc3601126102eb5760043567ffffffffffffffff81116102eb5761130360206112af60249336906004016107b1565b73ffffffffffffffffffffffffffffffffffffffff929183600354169060006040518097819582947f570e1a3600000000000000000000000000000000000000000000000000000000845260048401612510565b03925af1918215611377575b600092611347575b50604051917f6ca7b806000000000000000000000000000000000000000000000000000000008352166004820152fd5b61136991925060203d8111611370575b61136181836106e3565b8101906124fb565b9038611317565b503d611357565b61137f611cca565b61130f565b50346102eb577ffffffffffffffffffffffffffffffffffffffffffffffffffffffffffffffffc6020813601126102eb576004359067ffffffffffffffff82116102eb576101609082360301126102eb576113e36020916004016123b7565b604051908152f35b5060207ffffffffffffffffffffffffffffffffffffffffffffffffffffffffffffffffc3601126102eb576100216004356114258161055a565b613e25565b50346102eb576000807ffffffffffffffffffffffffffffffffffffffffffffffffffffffffffffffffc3601126115a5573381528060205260408120600181019063ffffffff825416908115611547576114e46114a961150c9361149b611496855460ff9060701c1690565b614189565b65ffffffffffff42166141ee565b84547fffffffffffffffffffffffffffffffffffffffffffff000000000000ffffffff16602082901b69ffffffffffff000000001617909455565b7fffffffffffffffffffffffffffffffffff00ffffffffffffffffffffffffffff8154169055565b60405165ffffffffffff91909116815233907ffa9b3c14cc825c412c9ed81b3ba365a5b459439403f18829e572ed53a4180f0a90602090a280f35b60646040517f08c379a000000000000000000000000000000000000000000000000000000000815260206004820152600a60248201527f6e6f74207374616b6564000000000000000000000000000000000000000000006044820152fd5b80fd5b50346102eb5760207ffffffffffffffffffffffffffffffffffffffffffffffffffffffffffffffffc3601126102eb576004356115e48161055a565b610bc673ffffffffffffffffffffffffffffffffffffffff6116263373ffffffffffffffffffffffffffffffffffffffff166000526000602052604060002090565b926116de611649610b2086546dffffffffffffffffffffffffffff9060781c1690565b94611655861515614208565b6116b66001820161168e65ffffffffffff61167a835465ffffffffffff9060201c1690565b1661168681151561426d565b4210156142d2565b80547fffffffffffffffffffffffffffffffffffffffffffff00000000000000000000169055565b7fffffff0000000000000000000000000000ffffffffffffffffffffffffffffff8154169055565b6040805173ffffffffffffffffffffffffffffffffffffffff831681526020810186905233917fb7c918e0e249f999e965cafeb6c664271b3f4317d296461500e71da39f0cbda391a2600080809581948294165af161173b6119ee565b50614337565b50346102eb5760207ffffffffffffffffffffffffffffffffffffffffffffffffffffffffffffffffc3601126102eb5773ffffffffffffffffffffffffffffffffffffffff6004356117928161055a565b16600052600060205260a0604060002065ffffffffffff60018254920154604051926dffffffffffffffffffffffffffff90818116855260ff8160701c161515602086015260781c16604084015263ffffffff8116606084015260201c166080820152f35b60209067ffffffffffffffff8111611811575b60051b0190565b61181961063d565b61180a565b90611828826117f7565b604090611837825191826106e3565b8381527fffffffffffffffffffffffffffffffffffffffffffffffffffffffffffffffe061186582956117f7565b019160005b8381106118775750505050565b60209082516118858161066d565b835161189081610696565b600081526000849181838201528187820152816060818184015260809282848201528260a08201528260c08201528260e082015286528185870152818987015285015283015282860101520161186a565b507f4e487b7100000000000000000000000000000000000000000000000000000000600052603260045260246000fd5b6020918151811015611926575b60051b010190565b61192e6118e1565b61191e565b9190811015611974575b60051b810135907ffffffffffffffffffffffffffffffffffffffffffffffffffffffffffffffea1813603018212156102eb570190565b61197c6118e1565b61193d565b60028054146119905760028055565b60646040517f08c379a000000000000000000000000000000000000000000000000000000000815260206004820152601f60248201527f5265656e7472616e637947756172643a207265656e7472616e742063616c6c006044820152fd5b3d15611a19573d906119ff82610731565b91611a0d60405193846106e3565b82523d6000602084013e565b606090565b73ffffffffffffffffffffffffffffffffffffffff168015611ab157600080809381935af1611a4b6119ee565b5015611a5357565b60646040517f08c379a000000000000000000000000000000000000000000000000000000000815260206004820152601f60248201527f41413931206661696c65642073656e6420746f2062656e6566696369617279006044820152fd5b60646040517f08c379a000000000000000000000000000000000000000000000000000000000815260206004820152601860248201527f4141393020696e76616c69642062656e656669636961727900000000000000006044820152fd5b9035907fffffffffffffffffffffffffffffffffffffffffffffffffffffffffffffffe1813603018212156102eb570180359067ffffffffffffffff82116102eb576020019181360383136102eb57565b908160209103126102eb575190565b601f82602094937fffffffffffffffffffffffffffffffffffffffffffffffffffffffffffffffe0938186528686013760008582860101520116010190565b60005b838110611bc15750506000910152565b8181015183820152602001611bb1565b907fffffffffffffffffffffffffffffffffffffffffffffffffffffffffffffffe0601f602093611c0d81518092818752878088019101611bae565b0116010190565b90611c2e6080916109ab96946101c0808652850191611b6f565b9360e0815173ffffffffffffffffffffffffffffffffffffffff80825116602087015260208201516040870152604082015160608701526060820151858701528482015160a087015260a08201511660c086015260c081015182860152015161010084015260208101516101208401526040810151610140840152606081015161016084015201516101808201526101a0818403910152611bd1565b506040513d6000823e3d90fd5b507f4e487b7100000000000000000000000000000000000000000000000000000000600052601160045260246000fd5b91908203918211611d1457565b610585611cd7565b91908201809211611d1457565b909291925a93611d426060820151926060810190611b0f565b90611d7a84846040519485947f1d73275600000000000000000000000000000000000000000000000000000000865260048601611c14565b03906020816000938185305af1829181611e6e575b50611e6657507fdeaddead00000000000000000000000000000000000000000000000000000000908060203d14611e58575b5014611dea57611de4611dd96109ab95965a90611d07565b608083015190611d1c565b9261383f565b611015836040519182917f220266b600000000000000000000000000000000000000000000000000000000835260048301608091815260406020820152600f60408201527f41413935206f7574206f6620676173000000000000000000000000000000000060608201520190565b9050602081803e5138611dc1565b955050505050565b611e9091925060203d8111611e97575b611e8881836106e3565b810190611b60565b9038611d8f565b503d611e7e565b6001907fffffffffffffffffffffffffffffffffffffffffffffffffffffffffffffffff8114611ecc570190565b611ed4611cd7565b0190565b9190811015611f19575b60051b810135907fffffffffffffffffffffffffffffffffffffffffffffffffffffffffffffffa1813603018212156102eb570190565b611f216118e1565b611ee2565b9035907fffffffffffffffffffffffffffffffffffffffffffffffffffffffffffffffe1813603018212156102eb570180359067ffffffffffffffff82116102eb57602001918160051b360383136102eb57565b356109ab8161055a565b15611f8b57565b60646040517f08c379a000000000000000000000000000000000000000000000000000000000815260206004820152601760248201527f4141393620696e76616c69642061676772656761746f720000000000000000006044820152fd5b90357fffffffffffffffffffffffffffffffffffffffffffffffffffffffffffffffe1823603018112156102eb57016020813591019167ffffffffffffffff82116102eb5781360383136102eb57565b6109ab916120648161204a84610594565b73ffffffffffffffffffffffffffffffffffffffff169052565b602082013560208201526120ff6120b06120956120846040860186611fe9565b610160806040880152860191611b6f565b6120a26060860186611fe9565b908583036060870152611b6f565b6080840135608084015260a084013560a084015260c084013560c084015260e084013560e084015261010080850135908401526101206120f281860186611fe9565b9185840390860152611b6f565b916121106101409182810190611fe9565b929091818503910152611b6f565b949391929083604087016040885252606086019360608160051b8801019482600090815b848310612161575050505050508460206109ab95968503910152611b6f565b9091929394977fffffffffffffffffffffffffffffffffffffffffffffffffffffffffffffffa08b820301855288357ffffffffffffffffffffffffffffffffffffffffffffffffffffffffffffffea1843603018112156121dc57600191846121ca9201612039565b98602090810196950193019190612142565b8280fd5b156121e757565b60646040517f08c379a000000000000000000000000000000000000000000000000000000000815260206004820152601760248201527f4141393220696e7465726e616c2063616c6c206f6e6c790000000000000000006044820152fd5b6040906109ab939281528160208201520190611bd1565b909291925a9361226d3033146121e0565b8151946040860151955a61138860608301518901011161238d576109ab9660009580516122b4575b505050906122ae915a900360808401510194369161077a565b91613a17565b6122e3916122df916122da855173ffffffffffffffffffffffffffffffffffffffff1690565b61440c565b1590565b6122ef575b8080612295565b6122ae929194506122fe61441e565b908151612312575b505060019390916122e8565b7f1c4fada7374c0a9ee8841fc38afe82932dc0f8e69012e927f061a8bae611a20173ffffffffffffffffffffffffffffffffffffffff6020870151926123836020612371835173ffffffffffffffffffffffffffffffffffffffff1690565b92015195604051938493169683612245565b0390a33880612306565b7fdeaddead0000000000000000000000000000000000000000000000000000000060005260206000fd5b6123cd6123c76040830183611b0f565b90614401565b906123de6123c76060830183611b0f565b906124946123f36123c7610120840184611b0f565b60405194859360208501956101008201359260e08301359260c08101359260a08201359260808301359273ffffffffffffffffffffffffffffffffffffffff60208201359135168c9693909a9998959261012098959273ffffffffffffffffffffffffffffffffffffffff6101408a019d168952602089015260408801526060870152608086015260a085015260c084015260e08301526101008201520152565b03916124c67fffffffffffffffffffffffffffffffffffffffffffffffffffffffffffffffe0938481018352826106e3565b519020604080516020810192835230918101919091524660608201526080928301815290916124f590826106e3565b51902090565b908160209103126102eb57516109ab8161055a565b9160206109ab938181520191611b6f565b919061252c90612770565b73ffffffffffffffffffffffffffffffffffffffff929183166126cb5761265d5761255690612770565b91166125ef576125635750565b604080517f220266b600000000000000000000000000000000000000000000000000000000815260048101929092526024820152602160448201527f41413332207061796d61737465722065787069726564206f72206e6f7420647560648201527f6500000000000000000000000000000000000000000000000000000000000000608482015260a490fd5b611015826040519182917f220266b600000000000000000000000000000000000000000000000000000000835260048301608091815260406020820152601460408201527f41413334207369676e6174757265206572726f7200000000000000000000000060608201520190565b611015836040519182917f220266b600000000000000000000000000000000000000000000000000000000835260048301608091815260406020820152601760408201527f414132322065787069726564206f72206e6f742064756500000000000000000060608201520190565b611015846040519182917f220266b600000000000000000000000000000000000000000000000000000000835260048301608091815260406020820152601460408201527f41413234207369676e6174757265206572726f7200000000000000000000000060608201520190565b92919061274590612770565b909273ffffffffffffffffffffffffffffffffffffffff808095169116036126cb5761265d57612556905b801561285b57600060408051612785816106c7565b828152826020820152015265ffffffffffff90818160a01c16918215612851575b506128339061280d612802604051946127be866106c7565b73ffffffffffffffffffffffffffffffffffffffff841686526127f0602087019460d01c859065ffffffffffff169052565b65ffffffffffff166040860181905290565b65ffffffffffff1690565b4211908115612836575b50915173ffffffffffffffffffffffffffffffffffffffff1690565b91565b51612849915065ffffffffffff16612802565b421038612817565b91506128336127a6565b50600090600090565b1561286b57565b60646040517f08c379a000000000000000000000000000000000000000000000000000000000815260206004820152601860248201527f41413934206761732076616c756573206f766572666c6f7700000000000000006044820152fd5b9290916000925a82516128dc8184612b86565b6128e5836123b7565b60208501526129236effffffffffffffffffffffffffffff60808301516060840151176040840151176101008601359060e087013517171115612864565b61292c81612c54565b6129388186868b612dc0565b98906129696122df61295e865173ffffffffffffffffffffffffffffffffffffffff1690565b602087015190613cbb565b612a615761297643600052565b73ffffffffffffffffffffffffffffffffffffffff6129ae60a0606096015173ffffffffffffffffffffffffffffffffffffffff1690565b16612a46575b505a840360a0860135106129e05750604085015260608401526080919060c0905a900391013501910152565b604080517f220266b600000000000000000000000000000000000000000000000000000000815260048101929092526024820152601e60448201527f41413430206f76657220766572696669636174696f6e4761734c696d697400006064820152608490fd5b90925081612a58929850868685613548565b969091386129b4565b611015826040519182917f220266b600000000000000000000000000000000000000000000000000000000835260048301608091815260406020820152601a60408201527f4141323520696e76616c6964206163636f756e74206e6f6e636500000000000060608201520190565b15612ad657565b60646040517f08c379a000000000000000000000000000000000000000000000000000000000815260206004820152601d60248201527f4141393320696e76616c6964207061796d6173746572416e64446174610000006044820152fd5b906014116102eb5790601490565b7fffffffffffffffffffffffffffffffffffffffff0000000000000000000000009035818116939260148110612b7757505050565b60140360031b82901b16169150565b612bf890612bb0612b9682611f7a565b73ffffffffffffffffffffffffffffffffffffffff168452565b602081013560208401526080810135604084015260a0810135606084015260c0810135608084015260e081013560c084015261010081013560e0840152610120810190611b0f565b908115612c4957612c2e612c28612c228460a094612c1d601461058599981015612acf565b612b34565b90612b42565b60601c90565b73ffffffffffffffffffffffffffffffffffffffff16910152565b505060a06000910152565b60a081015173ffffffffffffffffffffffffffffffffffffffff1615612c965760c060025b60ff60408401519116606084015102016080830151019101510290565b60c06001612c79565b612cb760409295949395606083526060830190612039565b9460208201520152565b60009060033d11612cce57565b905060046000803e60005160e01c90565b600060443d106109ab576040517ffffffffffffffffffffffffffffffffffffffffffffffffffffffffffffffffc91823d016004833e815167ffffffffffffffff918282113d602484011117612d5b57818401948551938411612d63573d85010160208487010111612d5b57506109ab929101602001906106e3565b949350505050565b50949350505050565b90610585602f60405180947f414132332072657665727465643a2000000000000000000000000000000000006020830152612db08151809260208686019101611bae565b810103600f8101855201836106e3565b90926000936000935a94612e906020835193612df0855173ffffffffffffffffffffffffffffffffffffffff1690565b95612e09612e016040830183611b0f565b90848c61311a565b60a086015173ffffffffffffffffffffffffffffffffffffffff1690612e2e43600052565b85809373ffffffffffffffffffffffffffffffffffffffff8094161598896130b2575b60600151908601516040517f3a871cdd000000000000000000000000000000000000000000000000000000008152978896879586939060048501612c9f565b03938a1690f1829181613092575b506130895750600190612eaf612cc1565b6308c379a014613033575b50612fc5575b612ece575b5050505a900391565b612ef89073ffffffffffffffffffffffffffffffffffffffff166000526000602052604060002090565b91612f14610b2084546dffffffffffffffffffffffffffff1690565b90818311612f5f575082547fffffffffffffffffffffffffffffffffffff0000000000000000000000000000169190036dffffffffffffffffffffffffffff16179055388080612ec5565b604080517f220266b600000000000000000000000000000000000000000000000000000000815260048101929092526024820152601760448201527f41413231206469646e2774207061792070726566756e640000000000000000006064820152608490fd5b611015846040519182917f220266b600000000000000000000000000000000000000000000000000000000835260048301608091815260406020820152601660408201527f4141323320726576657274656420286f72204f4f47290000000000000000000060608201520190565b61303b612cdf565b90816130475750612eba565b86916130539150612d6c565b906110156040519283927f220266b600000000000000000000000000000000000000000000000000000000845260048401612245565b9650612ec09050565b6130ab91925060203d8111611e9757611e8881836106e3565b9038612e9e565b94506130f8610b206130e48c73ffffffffffffffffffffffffffffffffffffffff166000526000602052604060002090565b546dffffffffffffffffffffffffffff1690565b8b81111561310f5750856060835b96915050612e51565b606087918d03613106565b92909181613129575b50505050565b82515173ffffffffffffffffffffffffffffffffffffffff1693843b6133ce576000602061316f610da760035473ffffffffffffffffffffffffffffffffffffffff1690565b606087510151604051809481937f570e1a36000000000000000000000000000000000000000000000000000000008352826131ae8b8b60048401612510565b0393f19081156133c1575b6000916133a3575b5073ffffffffffffffffffffffffffffffffffffffff80821696871561333557168096036132c7573b156132615750612c28612c227fd51a9c61267aa6196961883ecf5ff2da6619c37dac0fa92122513fb32c032d2d9361322193612b34565b602083810151935160a001516040805173ffffffffffffffffffffffffffffffffffffffff9485168152939091169183019190915290a338808080613123565b604080517f220266b600000000000000000000000000000000000000000000000000000000815260048101929092526024820152602060448201527f4141313520696e6974436f6465206d757374206372656174652073656e6465726064820152608490fd5b611015826040519182917f220266b600000000000000000000000000000000000000000000000000000000835260048301608091815260406020820152602060408201527f4141313420696e6974436f6465206d7573742072657475726e2073656e64657260608201520190565b611015846040519182917f220266b600000000000000000000000000000000000000000000000000000000835260048301608091815260406020820152601b60408201527f4141313320696e6974436f6465206661696c6564206f72204f4f47000000000060608201520190565b6133bb915060203d81116113705761136181836106e3565b386131c1565b6133c9611cca565b6131b9565b604080517f220266b600000000000000000000000000000000000000000000000000000000815260048101929092526024820152601f60448201527f414131302073656e64657220616c726561647920636f6e7374727563746564006064820152608490fd5b1561343b57565b60646040517f08c379a000000000000000000000000000000000000000000000000000000000815260206004820152601f60248201527f4141343120746f6f206c6974746c6520766572696669636174696f6e476173006044820152fd5b91906040838203126102eb57825167ffffffffffffffff81116102eb5783019080601f830112156102eb578151916134d083610731565b916134de60405193846106e3565b838352602084830101116102eb576020926134fe91848085019101611bae565b92015190565b90610585602f60405180947f414133332072657665727465643a2000000000000000000000000000000000006020830152612db08151809260208686019101611bae565b91949293909360609560009560009382519061358a60a08b8401519361356f848611613434565b015173ffffffffffffffffffffffffffffffffffffffff1690565b936135b58573ffffffffffffffffffffffffffffffffffffffff166000526000602052604060002090565b6135d0610b2082546dffffffffffffffffffffffffffff1690565b87811061376c579273ffffffffffffffffffffffffffffffffffffffff60208a9896939461364a8a966dffffffffffffffffffffffffffff8d6136839e9c9a03166dffffffffffffffffffffffffffff167fffffffffffffffffffffffffffffffffffff0000000000000000000000000000825416179055565b015194604051998a98899788937ff465c77e00000000000000000000000000000000000000000000000000000000855260048501612c9f565b0395169103f1908183918493613746575b5061373e5750506001906136a6612cc1565b6308c379a01461371f575b506136b95750565b604080517f220266b600000000000000000000000000000000000000000000000000000000815260048101929092526024820152601660448201527f4141333320726576657274656420286f72204f4f4729000000000000000000006064820152608490fd5b613727612cdf565b908161373357506136b1565b613053925050613504565b955093505050565b90925061376591503d8085833e61375d81836106e3565b810190613499565b9138613694565b6110158a6040519182917f220266b600000000000000000000000000000000000000000000000000000000835260048301608091815260406020820152601e60408201527f41413331207061796d6173746572206465706f73697420746f6f206c6f77000060608201520190565b600311156137e457565b7f4e487b7100000000000000000000000000000000000000000000000000000000600052602160045260246000fd5b9392919060038110156137e45760409161383a918652606060208701526060860190611bd1565b930152565b939291905a9281519161385183613c93565b9460a0840195613875875173ffffffffffffffffffffffffffffffffffffffff1690565b73ffffffffffffffffffffffffffffffffffffffff9490858116613a115750855173ffffffffffffffffffffffffffffffffffffffff16925b5a9003019560408601519051613a06575b60808401518703908181116139f2575b505085029760408301908982511061398c5750916139156020928a7f49628fd1471006c1482da88028e9ce4dbb080b815c9b0344d39e5a8e6ec1419f9695510390613d34565b015192613987602061395961393e845173ffffffffffffffffffffffffffffffffffffffff1690565b985173ffffffffffffffffffffffffffffffffffffffff1690565b9201519589846040519586951699169784606091949392608082019582526000602083015260408201520152565b0390a4565b604080517f220266b600000000000000000000000000000000000000000000000000000000815260048101929092526024820152602060448201527f414135312070726566756e642062656c6f772061637475616c476173436f73746064820152608490fd5b6064919003600a02049095019438806138cf565b6060860151016138bf565b926138ae565b909392915a94805193613a2985613c93565b9460a0810195613a4d875173ffffffffffffffffffffffffffffffffffffffff1690565b73ffffffffffffffffffffffffffffffffffffffff93908481169081613bf4575050825173ffffffffffffffffffffffffffffffffffffffff16995b5a9003019460408301519051613be9575b6080850151860390818111613bd5575b5050840297604084019089825110613b68577f49628fd1471006c1482da88028e9ce4dbb080b815c9b0344d39e5a8e6ec1419f94613af16020928c61398795510390613d34565b613afa886137da565b015194896020613b3c613b21865173ffffffffffffffffffffffffffffffffffffffff1690565b9a5173ffffffffffffffffffffffffffffffffffffffff1690565b940151604080519182529815602082015297880152606087015290821695909116939081906080820190565b6040517f220266b600000000000000000000000000000000000000000000000000000000815280611015600482016080906000815260406020820152602060408201527f414135312070726566756e642062656c6f772061637475616c476173436f737460608201520190565b6064919003600a0204909401933880613aaa565b606083015101613a9a565b9a908751613c03575b50613a89565b613c0c896137da565b6002890315613bfd576060850151813b156102eb57896000918a83613c64956040518097819682957fa9a234090000000000000000000000000000000000000000000000000000000084528d8d029160048501613813565b0393f18015613c86575b15613bfd578061103c613c80926106b3565b38613bfd565b613c8e611cca565b613c6e565b60e060c0820151910151808214613cb757480180821015613cb2575090565b905090565b5090565b73ffffffffffffffffffffffffffffffffffffffff16600052600160205267ffffffffffffffff613d178260401c60406000209077ffffffffffffffffffffffffffffffffffffffffffffffff16600052602052604060002090565b91825492613d2484611e9e565b9055161490565b61058533613e25565b73ffffffffffffffffffffffffffffffffffffffff16600052600060205260406000206dffffffffffffffffffffffffffff80825416928301809311613e18575b808311613dba5761058592166dffffffffffffffffffffffffffff167fffffffffffffffffffffffffffffffffffff0000000000000000000000000000825416179055565b60646040517f08c379a000000000000000000000000000000000000000000000000000000000815260206004820152601060248201527f6465706f736974206f766572666c6f77000000000000000000000000000000006044820152fd5b613e20611cd7565b613d75565b73ffffffffffffffffffffffffffffffffffffffff90613e453482613d34565b168060005260006020527f2da466a7b24304f47e87fa2e1e5a81b9831ce54fec19055ce277ca2f39ba42c460206dffffffffffffffffffffffffffff60406000205416604051908152a2565b15613e9857565b60646040517f08c379a000000000000000000000000000000000000000000000000000000000815260206004820152601a60248201527f6d757374207370656369667920756e7374616b652064656c61790000000000006044820152fd5b15613efd57565b60646040517f08c379a000000000000000000000000000000000000000000000000000000000815260206004820152601c60248201527f63616e6e6f7420646563726561736520756e7374616b652074696d65000000006044820152fd5b15613f6257565b60646040517f08c379a000000000000000000000000000000000000000000000000000000000815260206004820152601260248201527f6e6f207374616b652073706563696669656400000000000000000000000000006044820152fd5b15613fc757565b60646040517f08c379a000000000000000000000000000000000000000000000000000000000815260206004820152600e60248201527f7374616b65206f766572666c6f770000000000000000000000000000000000006044820152fd5b9065ffffffffffff60806001610585946140856dffffffffffffffffffffffffffff86511682906dffffffffffffffffffffffffffff167fffffffffffffffffffffffffffffffffffff0000000000000000000000000000825416179055565b602085015115156eff000000000000000000000000000082549160701b16807fffffffffffffffffffffffffffffffffff00ffffffffffffffffffffffffffff83161783557fffffff000000000000000000000000000000ffffffffffffffffffffffffffff7cffffffffffffffffffffffffffff000000000000000000000000000000604089015160781b16921617178155019263ffffffff6060820151167fffffffffffffffffffffffffffffffffffffffffffffffffffffffff000000008554161784550151167fffffffffffffffffffffffffffffffffffffffffffff000000000000ffffffff69ffffffffffff0000000083549260201b169116179055565b1561419057565b60646040517f08c379a000000000000000000000000000000000000000000000000000000000815260206004820152601160248201527f616c726561647920756e7374616b696e670000000000000000000000000000006044820152fd5b91909165ffffffffffff80809416911601918211611d1457565b1561420f57565b60646040517f08c379a000000000000000000000000000000000000000000000000000000000815260206004820152601460248201527f4e6f207374616b6520746f2077697468647261770000000000000000000000006044820152fd5b1561427457565b60646040517f08c379a000000000000000000000000000000000000000000000000000000000815260206004820152601d60248201527f6d7573742063616c6c20756e6c6f636b5374616b6528292066697273740000006044820152fd5b156142d957565b60646040517f08c379a000000000000000000000000000000000000000000000000000000000815260206004820152601b60248201527f5374616b65207769746864726177616c206973206e6f742064756500000000006044820152fd5b1561433e57565b60646040517f08c379a000000000000000000000000000000000000000000000000000000000815260206004820152601860248201527f6661696c656420746f207769746864726177207374616b6500000000000000006044820152fd5b156143a357565b60646040517f08c379a000000000000000000000000000000000000000000000000000000000815260206004820152601260248201527f6661696c656420746f20776974686472617700000000000000000000000000006044820152fd5b816040519182372090565b9060009283809360208451940192f190565b3d610800808211614445575b50604051906020818301016040528082526000602083013e90565b90503861442a56fea264697066735822122059f98e2c05c6ea5a099997dcd24e619796c5aef672aacc60764786044995cd3e64736f6c634300081100336080806040523461001657610210908161001c8239f35b600080fdfe6080604052600436101561001257600080fd5b6000803560e01c63570e1a361461002857600080fd5b346100c95760207ffffffffffffffffffffffffffffffffffffffffffffffffffffffffffffffffc3601126100c95760043567ffffffffffffffff918282116100c957366023830112156100c95781600401359283116100c95736602484840101116100c9576100c561009e84602485016100fc565b60405173ffffffffffffffffffffffffffffffffffffffff90911681529081906020820190565b0390f35b80fd5b507f4e487b7100000000000000000000000000000000000000000000000000000000600052604160045260246000fd5b90806014116101bb5767ffffffffffffffff917fffffffffffffffffffffffffffffffffffffffffffffffffffffffffffffffec82018381116101cd575b604051937fffffffffffffffffffffffffffffffffffffffffffffffffffffffffffffffe0603f81600b8701160116850190858210908211176101c0575b604052808452602084019036848401116101bb576020946000600c819682946014880187378301015251923560601c5af19060005191156101b557565b60009150565b600080fd5b6101c86100cc565b610178565b6101d56100cc565b61013a56fea26469706673582212201671bcc582585dff1b1e0ee349cf1db8f55f87daa21d11b5995f7ae0d942f4e864736f6c63430008110033",
  "linkReferences": {},
  "deployedLinkReferences": {}
}